:10000000B4C0CEC0CDC0CCC0CBC0F6C0C9C0C8C083
:10001000C7C0C6C0C5C0C4C0C3C059C173C124C213
:1000200020C228C215C217C216C215C223C213C2EB
:1000300012C211C21FC20FC20EC20DC20CC20BC22D
:1000400016C209C208C207C206C208C204C203C25D
:10005000FFC101C200C2FFC1FEC1FDC1FCC1F8C1A8
:10006000FAC108C2F8C1F7C1F3C1F2C103C2F3C1BA
:10007000F2C1F1C1F0C1EFC1FDC1EAC1FBC1EBC1E9
:10008000EAC1E9C1E5C173C342C3BFC28FC2FEC3A7
:10009000FDC3FCC3E7C2FAC3F9C3F8C35FC3F6C329
:1000A000F5C3F4C3F3C3F2C3A8C3F0C3EFC3EEC3F5
:1000B000EDC3F8C2EBC3EAC3D4C3E8C3E7C3E6C3E6
:1000C000E5C3E4C3E3C36BC3E1C390C2DFC3DEC3D4
:1000D00036C370C3B9C2DAC3D9C3D8C3D7C3D6C372
:1000E00077C212C304C3D2C3D1C3D0C331C3BFC408
:1000F000BBC4C3C4B0C4B2C4B1C4B0C4BEC4AEC433
:10010000ADC4ACC4BAC4AAC4A9C4A8C4A7C4A6C474
:10011000B1C4A4C4A3C4A2C4A1C4A3C49FC49EC4A4
:100120009AC49CC49BC49AC499C498C497C493C4E9
:1001300095C4A3C493C492C48EC48DC49EC48EC4FB
:100140008DC48CC48BC48AC498C485C496C486C428
:1001500085C484C480C458010300326EFF0000329D
:100160006E00FF00326E0000FF0011241FBECFE5BD
:10017000D1E0DEBFCDBF10E0A0E6B0E0E8EDFFE0EB
:1001800003C0C89531960D92A236B107D1F710E0A1
:10019000A2E6B0E001C01D92AA3EB107E1F701C09E
:1001A0002FCFCFE5D1E0DEBFCDBFFFD41CD18FEF85
:1001B00080938E00A0D18DE043D082E088BF89BFBC
:1001C00081E083BF789402C061D02DD473D088239E
:1001D00061F0FACFE92FFF27E770F070E652FF4F8A
:1001E00080819F5F9093D80040D09091D8008091FB
:1001F000D900981779F7EACF1F920F920FB60F9296
:1002000011242F933F934F935F936F937F938F931B
:100210009F93AF93BF93EF93FF93CAD392D4FF9171
:10022000EF91BF91AF919F918F917F916F915F916E
:100230004F913F912F910F900FBE0F901F901895E7
:100240001092740010927500109262001092630078
:100250008093870087B3856087BBC29AC09AB8989D
:1002600088EA8DB980EF8EB90895282F90916300A8
:100270009F5F9F70809162009817E1F3E92FFF273D
:10028000EC59FF4F2083909363000895909175007F
:10029000809174009817D1F3809174008F5F8F70F4
:1002A00080937400E0917400FF27EA58FF4F80812B
:1002B00099270895909175008091740020E030E0B6
:1002C000981711F021E030E0932F822F08951F92AC
:1002D0000F920FB60F9211248F9310928600B89848
:1002E000B29B02C0B09BFCCFB09902C088EF01C0A6
:1002F00088EA8DB980EF8EB98F910F900FBE0F9065
:100300001F9018951F920F920FB60F9211248F9382
:100310009F93EF93FF93809186008230D9F18330D1
:1003200030F4882361F0813009F054C018C0843063
:10033000B9F1843088F0853009F04CC037C08FB1F6
:10034000882331F08FB186959091D3008917F9F405
:10035000789B39C081E038C08FB18823C1F4909177
:10036000630080916200981791F0809162008F5F26
:100370008F7080936200E0916200FF27EC59FF4F7D
:1003800080818FB982E080938600B89A0DC088EA98
:100390008DB90AC083E080938600B8981FB818C052
:1003A00085E080938600B89880E713C0809175003F
:1003B0008F5F8F7080937500E09175008FB1FF277C
:1003C000EA58FF4F808384E0809386001FB8B89A74
:1003D0008EE78EB9FF91EF919F918F910F900FBE95
:1003E0000F901F9018951092CB008FEF8093CC0048
:1003F0001092CD001092CE001092CF001092D0003B
:100400001092D1001092D2008DE08093D30081E051
:1004100090E0A0E0B0E08093D4009093D500A0934A
:10042000D600B093D7001092D8001092D9008AE27B
:100430008093E20008959927AA27BB27F92FE82F78
:10044000E154F040E433F10530F4E15FFF4F0994EB
:1004500081E090E008958FEF90E0089588E090E0CB
:10046000089586E090E0089585E090E0089583E0A7
:1004700090E0089584E090E00895F82F882319F41F
:1004800080E090E00895809160008F5F809360002D
:10049000E091D400E80FEF5F2E2F3327E295EF7045
:1004A00053E0220F331F5A95E1F7622F732F8827ED
:1004B00077FD8095982F6E0F711D811D911DE6951A
:1004C000E695E6956E1B71098109910943E0220FBB
:1004D000331F4A95E1F7442737FD4095542F621B9F
:1004E000730B840B950B2F2F332744275527FED4EE
:1004F000862F99270895CF93DF93CDB7DEB727973F
:100500000FB6F894DEBF0FBECDBFE199FECFA2E0DB
:10051000B0E044D5802D8093D300E199FECF87E0F1
:10052000A3E0B0E0FD2FEC2F3196182E3FD5898146
:10053000813281F48A81813069F48093CD008C818D
:100540008093D0008D81882311F0809388008E8164
:100550008093D20027960FB6F894DEBF0FBECDBFB2
:10056000DF91CF910895CF92DF92EF92FF920F9398
:100570001F93CF93DF93CDB7DEB72A970FB6F894CA
:10058000DEBF0FBECDBFC82ED92EF92FE82F808138
:100590009927AA27BB27F92FE82FE154F040E4332D
:1005A000F10508F073C1ED5BFF4F0994A2EEB0E0D6
:1005B0009091D900E92FFF27E770F070E652FF4FC6
:1005C0008D9180839F5FF0E0AA3EBF0799F712C12B
:1005D00010928A00FD2DEC2D818180938E00828106
:1005E00080938F0083818093900050C181E080933D
:1005F0008A00FD2DEC2D818180938B008281809378
:100600008C00838180938D0041C181E080938A00BA
:1006100010918E00FD2DEC2D81812FDF180F10938E
:100620008B0010918F00FD2DEC2D828126DF180F9D
:1006300010938C0010919000FD2DEC2D83811DDF17
:10064000180F10938D0022C1FD2DEC2D4381628186
:1006500070E9E72E70E0F72E0FE810E02EE830E0AA
:1006600081811EC00C2F1D2F0D5F1F4F2C2F3D2F82
:100670002E5F3F4F4C2F5D2F4F5F5F4F60918E007D
:1006800070918F00809190009CD26DE8E62E60E022
:10069000F62E0CE810E02BE830E04B816A8189816E
:1006A0001DD3F4C0BD2DAC2D1296FD2DEC2D8281F5
:1006B0008A3008F0EBC083818C8384818D838581AF
:1006C0008E8386818F8387818887E199FECF8C9185
:1006D000992765E070E0BED3B92FA82FAE5FBF4F5A
:1006E00085E0FD2FEC2F3496182E71D4CFC0FD2D50
:1006F000EC2D82818093D00083818093CF00818113
:100700008F5F8093CD00C2C01092CD00BFC081E248
:100710008C83FD2DEC2D81818D8382818F8383815C
:100720008E838481888785818987E199FECF87E0E0
:10073000FD2FEC2F3496A3E0B0E0182E48D4FD2D09
:10074000EC2D8181882309F4A1C0809388009EC08C
:10075000FD2DEC2D81818093D20098C0FD2DEC2DD4
:1007600082818093CE0083818093D0008FC0FD2D45
:10077000EC2D82818D3009F089C083818D3009F0A4
:1007800085C021818481281709F080C02093D3007F
:10079000E199FECFA2E0B0E0022E0DD477C08091A7
:1007A000D900E82FFF27E770F070E652FF4F9091D5
:1007B000D30068C09091D900E92FFF27E770F0704F
:1007C000E652FF4F80918E0080839F5FE92FFF27C5
:1007D000E770F070E652FF4F80918F0080839F5F3B
:1007E000E92FFF27E770F070E652FF4F80919000ED
:1007F00080839F5F9093D90049C0E199FECFFD2D82
:10080000EC2D8281992765E070E024D3B92FA82FC1
:10081000AE5FBF4F85E0FD2FEC2F3496182EC6D368
:100820009091D900E92FFF27E770F070E652FF4F53
:100830008C8180839F5F9093D900AC2FBD2F15963C
:100840002C2F3D2F275F3F4FE92FFF27E770F070D8
:10085000E652FF4F8D9180839F5FA217B307A1F7E8
:10086000C9CF8091D900E82FFF27E770F070E652DA
:10087000FF4F10828F5FE82FFF27E770F070E6527E
:10088000FF4F92E090838F5F8093D9002A960FB636
:10089000F894DEBF0FBECDBFDF91CF911F910F91B6
:1008A000FF90EF90DF90CF900895CF93DF93CDB777
:1008B000DEB725970FB6F894DEBF0FBECDBF80918F
:1008C000CD00882329F46FEF7FEF8FEF9FEF67C094
:1008D0008130B9F4E199FECF8091CF008F5F809392
:1008E000CF008150992765E070E0B4D2B92FA82FCE
:1008F000AE5FBF4F85E0FD2FEC2F3196182E56D3FB
:1009000025C086E591E0F92FE82FC895202D319676
:10091000C895302DF32FE22FC895802D8093CE00FF
:100920008091CF008F5F8093CF0081502E5F3F4F2B
:10093000992765E070E08ED2280F391F45E050E01E
:10094000732F622F8C2F9D2F019678D28C2F9D2F85
:10095000029609DE9091CF008091CE00981789F41D
:100960001092CF008091D1008F5F8093D100909141
:10097000D000992331F0891720F01092CD00109209
:10098000D10089812091D200820F912D911D282FB5
:10099000392F622F732F882777FD8095982F259602
:1009A0000FB6F894DEBF0FBECDBFDF91CF91089593
:1009B0008091D4009091D500A091D600B091D7003D
:1009C0000197A109B1098093D4009093D500A09319
:1009D000D600B093D7000097A105B10519F565DFE2
:1009E0006F3F2FEF72072FEF82072FEF920769F407
:1009F0008FEF9FEFA0E0B0E08093D4009093D500FC
:100A0000A093D600B093D70008952FEF30E040E0D8
:100A100050E032D26093D4007093D5008093D6001A
:100A20009093D7000895982F8091CB00E82FFF274F
:100A3000EF56FF4F92AB882321F5892F9927AA27DC
:100A4000BB27F92FE82FE154F040E433F10530F4EF
:100A5000E958FF4F099481E090E011C08FEF90E0DA
:100A60000EC088E090E00BC086E090E008C085E012
:100A700090E005C083E090E002C084E090E08093C5
:100A8000CC004091CB00242F33278091CC009927B4
:100A900001972817390731F483EC90E064DD109258
:100AA000CB0008954F5F4093CB00089590918E0046
:100AB00020918B00921791F080918800291738F4CB
:100AC000392F321B381708F4832F981B05C0291BB8
:100AD000281708F4822F980F90938E0090918F0022
:100AE00020918C00921791F080918800291738F49A
:100AF000392F321B381708F4832F981B05C0291B88
:100B0000281708F4822F980F90938F0090919000EF
:100B100020918D009217A1F080918800291748F448
:100B2000392F321B381708F4832F981B90939000AD
:100B30000895291B281708F4822F980F909390008E
:100B40000895809189008F5F80938900882389F4BC
:100B500080918E008111C39A80918F008111C49A77
:100B6000809190008111C19A80918A00813009F4AE
:100B70009DDF90918E009F3F29F080918900891719
:100B800009F4C39890918F009F3F29F080918900CC
:100B9000891709F4C498909190009F3F29F08091A3
:100BA0008900891709F4C19808958FEF809389000F
:100BB00010928A0081E080938800BB9ABC9AB99A0F
:100BC0000895AF92BF92CF92DF92FF920F931F933F
:100BD000CF93DF93CDB7DEB723970FB6F894DEBF80
:100BE0000FBECDBF69837A838B83C42ED52EA22EF0
:100BF000B32EF12FE02F062FF82E172F871730F086
:100C0000701708F4672F1F1548F003C0801708F409
:100C1000682F402F011730F4412F04C0402F0F15CB
:100C200008F44F2D4083442321F4BB2DAA2D1C92A0
:100C300013C0242F3327F32FE22FE61BF1098E2F49
:100C40009F2F6FEF70E006D1732F622F3CD1BB2D29
:100C5000AA2D6C93662321F4FD2DEC2D10822EC05D
:100C6000401759F4812F99278F1991096BE270E091
:100C7000F1D06E2F7F2F27D11EC0202F3327411791
:100C800079F48F2D9927821B930B6BE270E0E2D0F1
:100C90006E2F7F2F18D16B5AFD2DEC2D60830EC067
:100CA000932F822F811B91096BE270E0D3D06E2FBE
:100CB0007F2F09D16555BD2DAC2D6C9323960FB6B2
:100CC000F894DEBF0FBECDBFDF91CF911F910F9182
:100CD000FF90DF90CF90BF90AF9008955F926F929A
:100CE0007F928F929F92AF92BF92CF92DF92EF92BC
:100CF000FF920F931F93CF93DF93582FB62ED32FCE
:100D0000C22FC02ED12E8E2C9F2C662329F448830F
:100D1000F12FE02F40836FC060EAC9D0582E852F95
:100D2000992766E070E096D000E110E060E170E0A5
:100D3000CAD0972F862F60E170E0C5D0E82EF92E3B
:100D4000E42FE295EF70FF27B694B694B694B6946C
:100D50002B2D3327712F602F621B730B8E2F9F2F2C
:100D600079D0A82EB92E932F822F7F2D6E2D72D081
:100D700060E170E0A8D0912F802F861B970B682F21
:100D8000792F8E2F9F2F66D0682E792E712F602F8E
:100D90006E197F09932F822F5DD060E170E093D0B0
:100DA000061B170B8E2F9F2F712F602F53D05520AE
:100DB00029F44883FD2DEC2D808307C0F1E05F16F8
:100DC00041F46882FD2DEC2D4083F92DE82DA082A1
:100DD00025C0F2E05F1641F4A882FD2DEC2D408382
:100DE000F92DE82D80831AC0F3E05F1641F4A88244
:100DF000FD2DEC2D6082F92DE82D40830FC0F4E02D
:100E00005F1629F48883FD2DEC2DA082F4CF488352
:100E1000FD2DEC2DA082F92DE82D6082DF91CF9180
:100E20001F910F91FF90EF90DF90CF90BF90AF9008
:100E30009F908F907F906F905F900895E62FF72F8F
:100E4000A82FB92F03C0C89531960D92415050403C
:100E5000D0F708955527002480FF02C0060E571FC3
:100E6000660F771F6115710521F09695879500979C
:100E700099F7952F802D0895FF27EE27BB27AA27E6
:100E800060FF04C0A20FB31FE41FF51F220F331F22
:100E9000441F551F969587957795679589F7009715
:100EA000760771F79F2F8E2F7B2F6A2F0895991B3E
:100EB00079E004C0991F961708F0961B881F7A9551
:100EC000C9F78095089597FB092E07260AD077FD6C
:100ED00004D027D006D000201AF4709561957F4F7A
:100EE0000895F6F7909581959F4F089597FB092EE9
:100EF00005260ED057FD04D02AD00AD0001C38F4A5
:100F000050954095309521953F4F4F4F5F4F089535
:100F1000F6F790958095709561957F4F8F4F9F4F15
:100F20000895AA1BBB1B51E107C0AA1FBB1FA61730
:100F3000B70710F0A61BB70B881F991F5A95A9F782
:100F400080959095682F792F8A2F9B2F0895A1E285
:100F50001A2EAA1BBB1BEA2FFB2F0DC0AA1FBB1FFB
:100F6000EE1FFF1FA217B307E407F50720F0A21B2F
:100F7000B30BE40BF50B661F771F881F991F1A949C
:100F800069F76095709580959095262F372F482F9B
:100F9000592F6A2F7B2F8E2F9F2F0895E199FECF17
:100FA000BFBBAEBBE09A11960DB20895F7DF019278
:100FB0001A94E1F70895E199FECFBFBBAEBB0DBA1D
:100FC00011960FB6F894E29AE19A0FBE0895019037
:080FD000F2DF1A94E1F7089525
:020FD800010016
:00000001FF
